{
  "_format": "hh-sol-artifact-1",
  "contractName": "ToBeCalled",
  "sourceName": "contracts/Delegate.sol",
  "abi": [
    {
      "inputs": [],
      "name": "num",
      "outputs": [
        {
          "internalType": "uint256",
          "name": "",
          "type": "uint256"
        }
      ],
      "stateMutability": "view",
      "type": "function"
    },
    {
      "inputs": [],
      "name": "sender",
      "outputs": [
        {
          "internalType": "address",
          "name": "",
          "type": "address"
        }
      ],
      "stateMutability": "view",
      "type": "function"
    },
    {
      "inputs": [
        {
          "internalType": "uint256",
          "name": "_num",
          "type": "uint256"
        }
      ],
      "name": "setA",
      "outputs": [],
      "stateMutability": "payable",
      "type": "function"
    },
    {
      "inputs": [],
      "name": "value",
      "outputs": [
        {
          "internalType": "uint256",
          "name": "",
          "type": "uint256"
        }
      ],
      "stateMutability": "view",
      "type": "function"
    }
  ],
  "bytecode": "0x608060405234801561001057600080fd5b50610306806100206000396000f3fe60806040526004361061003f5760003560e01c80633fa4f245146100445780634e70b1dc1461006f57806367e404ce1461009a578063ee919d50146100c5575b600080fd5b34801561005057600080fd5b506100596100e1565b604051610066919061018a565b60405180910390f35b34801561007b57600080fd5b506100846100e7565b604051610091919061018a565b60405180910390f35b3480156100a657600080fd5b506100af6100ed565b6040516100bc91906101e6565b60405180910390f35b6100df60048036038101906100da9190610232565b610113565b005b60025481565b60005481565b600160009054906101000a900473ffffffffffffffffffffffffffffffffffffffff1681565b806003610120919061028e565b60008190555033600160006101000a81548173ffffffffffffffffffffffffffffffffffffffff021916908373ffffffffffffffffffffffffffffffffffffffff1602179055503460028190555050565b6000819050919050565b61018481610171565b82525050565b600060208201905061019f600083018461017b565b92915050565b600073ffffffffffffffffffffffffffffffffffffffff82169050919050565b60006101d0826101a5565b9050919050565b6101e0816101c5565b82525050565b60006020820190506101fb60008301846101d7565b92915050565b600080fd5b61020f81610171565b811461021a57600080fd5b50565b60008135905061022c81610206565b92915050565b60006020828403121561024857610247610201565b5b60006102568482850161021d565b91505092915050565b7f4e487b7100000000000000000000000000000000000000000000000000000000600052601160045260246000fd5b600061029982610171565b91506102a483610171565b92508282026102b281610171565b915082820484148315176102c9576102c861025f565b5b509291505056fea2646970667358221220060adac4e94e9eb5b2406ec21713b2ca2c935d76a13d29cb2200c673c66b69f564736f6c63430008180033",
  "linkReferences": {},
  "deployedLinkReferences": {}
}